:020000040800F2
:10000000008001203DEE00089517000897170008B2
:10001000991700089B1700089D17000800000000B2
:100020000000000000000000000000009F17000812
:10003000A117000800000000A3170008A51700087A
:100040008DEE00088DEE00088DEE00088DEE0008A4
:100050008DEE00088DEE00088DEE00088DEE000894
:100060008DEE00088DEE00088DEE00088DEE000884
:100070008DEE00088DEE00088DEE00088DEE000874
:100080008DEE00088DEE00088DEE000800000000E7
:100090000000000000000000000000008DEE0008DD
:1000A0008DEE00088DEE00088DEE00088DEE000844
:1000B0008DEE00088DEE00088DEE00088DEE000834
:1000C0008DEE00088DEE00088DEE00088DEE000824
:1000D0008DEE00088DEE00088DEE00080000000097
:1000E0008DEE00088DEE00088DEE00080000000087
:1000F0000000000000000000000000008DEE00087D
:10010000000000008DEE00088DEE00088DEE000866
:1001100000000000000000000000000000000000DF
:100120008DEE00088DEE00088DEE00088DEE0008C3
:100130008DEE00080000000000000000000000003C
:100140000000000000000000000000008DEE00082C
:100150008DEE00088DEE00088DEE00088DEE000893
:100160008DEE00088DEE0008000000000000000089
:10017000000000000000000000000000000000007F
:10018000000000008DEE00080000000000000000EC
:040190008DEE0008E8
:1001A00010B5054C237833B9044B13B10448AFF3B1
:1001B00000800123237010BDF0000020000000002B
:1001C0005803010808B5034B1BB103490348AFF3BB
:1001D000008008BD00000000F40000205803010862
:1001E000034613F8012B002AFBD1181A0138704777
:1001F00001F0FF01102A2BDB10F0070F08D010F8D8
:10020000013B013A8B422DD010F0070F42B3F6D1DB
:10021000F0B441EA012141EA014122F007047FF0F4
:1002200000070023F0E80256083C85EA010586EA4B
:10023000010685FA47F5A3FA87F586FA47F6A5FA87
:1002400087F68EB9EED1F0BC01F0FF0102F0070293
:1002500032B110F8013B013A83EA010313B1F8D13E
:100260000020704701387047002D06BF354603381F
:10027000073815F0010F07D1013015F4807F02BF58
:10028000013015F4C03F0130F0BC0138704700BFA9
:1002900053B94AB9002908BF00281CBF4FF0FF31ED
:1002A0004FF0FF3000F07AB9ADF1080C6DE904CEE3
:1002B00000F006F8DDF804E0DDE9022304B0704741
:1002C0002DE9F0478C460D460446089E002B51D17F
:1002D0008A4217466DD9B2FA82FEBEF1000F0BD0EA
:1002E000CEF1200C01FA0EF520FA0CFC02FA0EF702
:1002F0004CEA050C00FA0EF44FEA174A250CBCFB39
:10030000FAF81FFA87F90AFB18CC45EA0C4508FBF6
:1003100009F3AB420AD9ED1908F1FF3280F02381CD
:10032000AB4240F22081A8F102083D44ED1AA4B28C
:10033000B5FBFAF00AFB105544EA054400FB09F945
:10034000A14509D9E41900F1FF3380F00A81A145E4
:1003500040F2078102383C44A4EB090440EA08401B
:100360000021002E61D024FA0EF400233460736063
:10037000BDE8F0878B4207D9002E54D0002186E8D3
:1003800021000846BDE8F087B3FA83F1002940F068
:100390008E80AB4202D3824200F2FA80841A65EB6F
:1003A00003050120AC46002E3FD086E81010BDE8C2
:1003B000F08712B90127B7FBF2F7B7FA87FEBEF153
:1003C000000F34D1EB1B3A0C1FFA87FC0121B3FB61
:1003D000F2F8250C02FB183345EA03450CFB08F341
:1003E000AB4207D9ED1908F1FF3002D2AB4200F25F
:1003F000D1808046ED1AA3B2B5FBF2F002FB105596
:1004000043EA05440CFB00FCA44507D9E41900F1BC
:10041000FF3302D2A44500F2B8801846A4EB0C04C6
:1004200040EA08409DE731463046BDE8F087CEF10E
:10043000200405FA0EF307FA0EF720FA04F83A0C36
:1004400025FA04F448EA0308B4FBF2F14FEA184530
:1004500002FB11441FFA87FC45EA044501FB0CF33B
:10046000AB4200FA0EF409D9ED1901F1FF3080F02A
:100470008A80AB4240F2878002393D44EB1A1FFA72
:1004800088F5B3FBF2F002FB103345EA034500FBAD
:100490000CF3AB4207D9ED1900F1FF386FD2AB4234
:1004A0006DD902383D44EB1A40EA01418FE7C1F1B2
:1004B000200722FA07F88B4005FA01F448EA030303
:1004C00020FA07FE4FEA134CFD404EEA040EB5FB3E
:1004D000FCF94FEA1E440CFB19551FFA83F844EA55
:1004E000054509FB08F4AC4202FA01F200FA01FAF0
:1004F00008D9ED1809F1FF3043D2AC4241D9A9F136
:1005000002091D442D1B1FFA8EFEB5FBFCF00CFBEF
:1005100010554EEA054400FB08F8A04507D9E41839
:1005200000F1FF3529D2A04527D902381C4440EA02
:100530000940A4EB0804A0FB02894C45C6464D4681
:1005400015D312D056B1BAEB0E0364EB050404FACE
:1005500007F7CB401F43CC40376074600021BDE8F3
:10056000F0871846F8E69046E0E6C245EAD2B8EBD6
:10057000020E69EB03050138E4E72846D7E7404659
:1005800091E78146BEE7014678E702383C4445E7FB
:10059000084608E7A8F102083D442BE7704700BF72
:1005A00038B50E4A0E4B054618784FF47A73B3FBF4
:1005B000F0F31068B0FBF3F000F088F8044658B987
:1005C0000F2D09D8024629464FF0FF3000F04AF8B7
:1005D000044B20461D6038BD012038BD240000209A
:1005E000000000200400002008B50B4B1A6842F4FC
:1005F00000721A601A6842F480621A601A6842F443
:1006000080721A60032000F01BF80020FFF7C8FF7B
:1006100001F036F8002008BD003C0240034A044BBC
:1006200011681B780B441360704700BF60270020DF
:1006300000000020014B1868704700BF60270020B1
:10064000074AD36823F4E0631B041B0C43F0BF6329
:10065000000243F4003300F4E0600343D3607047CA
:1006600000ED00E0174B30B5DC68C4F30224C4F1A0
:100670000703251D042B28BF0423062D4FF0010579
:1006800005FA03F303F1FF338CBF033C0024194048
:10069000A14005FA04F4013C2240002842EA01028C
:1006A0004FEA0212ADBF00F1604000F00F00064BB0
:1006B00000F56140B5BFD2B2D2B21A5480F800231F
:1006C00030BD00BF00ED00E014ED00E00138B0F1F6
:1006D000807F0AD2064B074A5860F02182F8231027
:1006E0000020072298601A6070470120704700BF01
:1006F00010E000E000ED00E02DE9F04F85B00B6860
:10070000DFF88C81604A01934FF001090023019DBD
:1007100009FA03F42540AC4240F0A6804C6824F06E
:10072000100C0CF1FF36012E4FEA430E12D88768E9
:10073000032606FA0EF627EA0607CE6806FA0EF634
:100740003E4386604768C4F3001627EA05079E40CB
:100750003E4346600326C76806FA0EF6F64307EAEC
:10076000060A8F6807FA0EF747EA0A07BCF1020F7C
:10077000C76016D14FEAD30A00EB8A0A03F0070BD1
:10078000DAF820704FEA8B0B4FF00F0C0CFA0BFCD1
:1007900027EA0C0C0F6907FA0BF747EA0C07CAF8AF
:1007A000207007683E4004F0030707FA0EFE4EEA89
:1007B00006060660E60057D54FF0000BCDF80CB0EA
:1007C000D8F84470314E47F48047C8F84470D8F8E0
:1007D000447007F480470397039F23F0030707F152
:1007E000804707F59C3703F0030CD7F808A04FEAC1
:1007F0008C0C4FF00F0E0EFA0CFEB0422AEA0E0ED1
:1008000039D006F58066B04237D006F58066B04232
:1008100035D006F58066B04233D006F58066B0422A
:1008200014BF0726042606FA0CF646EA0E06BE603A
:100830001668EF4314F4803F0CBF3E402E43166011
:10084000566814F4003F0CBF3E402E435660966835
:1008500014F4801F0CBF3E402E439660D668A4025D
:1008600054BF3E402E43D6600133102B7FF44FAF70
:1008700005B0BDE8F08F5E46D5E70126D3E7022636
:10088000D1E70326CFE700BF003C01400000024053
:10089000003802400AB1816170470904FBE700009B
:1008A0002DE9F341044608B901203FE00368DD0764
:1008B00010D4236898075AD423681A0700F19C8043
:1008C00023685B0700F1BA80A069002840F01B8113
:1008D00000202BE0A44B9A6802F00C02042A07D0F7
:1008E0009A6802F00C02082A0AD15B68590207D5FF
:1008F0009D4B1B689A03DCD56368002BD9D1D3E7E5
:100900006368994DB3F5803F13D12B6843F480336E
:100910002B60FFF78FFE944D06462B689B03C8D4CF
:10092000FFF788FE801B6428F7D9032002B0BDE8DA
:10093000F081B3F5A02F04D12B6843F480232B6002
:10094000E3E72A6822F480322A602A6822F48022AF
:100950002A60002BDDD1FFF76DFE06462B689F0352
:10096000A7D5FFF767FE801B6428F7D9DDE77E4B2C
:100970009A6812F00C0F07D09A6802F00C02082A4D
:1009800011D15B685E020ED4774B1A68950702D5C9
:10099000E268012A88D11A68216922F0F80242EA45
:1009A000C1021A6088E7E268704BB2B101221A6096
:1009B000FFF740FE6C4D06462B68980707D52B685D
:1009C000226923F0F80343EAC2032B6074E7FFF7C0
:1009D00031FE801B0228EFD9A7E71A60FFF72AFE35
:1009E000614D06462B6899077FF566AFFFF722FE3B
:1009F000801B0228F6D998E762695D4B7AB1012223
:100A00001A60FFF717FE584D06466B6F9F073FF5BC
:100A100057AFFFF70FFE801B0228F6D985E71A6053
:100A2000FFF708FE504D06466B6F98077FF548AFFD
:100A3000FFF700FE801B0228F6D976E74A4B1A6CB6
:100A400012F0805228D101921A6C42F080521A643E
:100A50001B6C03F080530193019B0126454D2B68CD
:100A6000D9051BD5A368404D012B27D12B6F43F02F
:100A700001032B67FFF7DEFD3B4D074641F2883847
:100A80002B6F9B0739D5002E3FF41EAF364A136CEF
:100A900023F08053136417E70026DFE72B6843F445
:100AA00080732B60FFF7C6FD07462B68DA05D9D4A3
:100AB000FFF7C0FDC01B0228F7D936E7052B04D18C
:100AC0002B6F43F004032B67D0E72A6F22F001025B
:100AD0002A672A6F22F004022A67002BCAD1FFF787
:100AE000A9FD41F2883807462B6F9807CBD5FFF751
:100AF000A1FDC01B4045F7D917E7FFF79BFDC01BC1
:100B00004045BDD911E7184DAB6803F00C03082B25
:100B100047D0194E00230228336035D1FFF78AFDF4
:100B200007462B68990129D4226AE3691343626A54
:100B300043EA8213E26A43EA0263A26A0A4C520859
:100B4000013A43EA02436B6001233360FFF772FD11
:100B5000054623689A013FF5BBAEFFF76BFD401BCE
:100B60000228F6D9E1E600BF003802400000474203
:100B7000800E47420070004060004742FFF75AFD78
:100B8000C01B0228CDD9D0E6FFF754FD04462B68E0
:100B90009B017FF59DAEFFF74DFD001B0228F6D9A6
:100BA000C3E601283FF4C2AEA868E36900F48002FE
:100BB0009A427FF479AE226A00F03F0393427FF4B9
:100BC00073AE626A47F6C073034093427FF46CAE23
:100BD000A26A00F4403393427FF466AEE36A00F009
:100BE0007060C01A18BF0120A0E600BF134908B505
:100BF0008B6803F00C03042B03D0082B03D01048A0
:100C000008BD104808BD4A684B68496813F4800362
:100C100014BF0C480A48C1F3881118BF002302F022
:100C20003F02A1FB0001FFF733FB044B5B68C3F3FA
:100C3000014301335B00B0FBF3F008BD0038024014
:100C40000024F40040787D012DE9F0410D46044672
:100C500010B90120BDE8F081444B1A6802F00F0280
:100C60008A4229D321688F072ED4C80741D43F4B2D
:100C70001A6802F00F02954267D3226851076DD4BB
:100C8000130707D53A4A2169936823F4604343EA7E
:100C9000C1039360FFF7AAFF354B364A9B68C3F345
:100CA0000313D35CD840344B1860344B1868FFF7FB
:100CB00077FC0020BDE8F081CAB21A701B6803F00F
:100CC0000F039942C5D1CDE7294B11F0040F1EBF88
:100CD0009A6842F4E0529A600E0742BF9A6842F462
:100CE00060429A609A68A06822F0F00202439A601B
:100CF000BBE762681E4B012A1DD11B6813F4003F3D
:100D0000A7D01B4EB36823F003031343B360FFF770
:100D100091FC41F288380746B368626803F00C031F
:100D2000B3EB820FA3D0FFF785FCC01B4045F3D97E
:100D30000320BDE8F081911E01291B6802D813F041
:100D4000007FDDE713F0020FDAE7EAB21A701B68E2
:100D500003F00F039D427FF47CAF8EE70449E06807
:100D60008B6823F4E05303438B6089E7003C024027
:100D700000380240C00401082400002004000020C4
:100D8000044B054A9B68C3F38223D35C034A106873
:100D9000D840704700380240D004010824000020E9
:100DA000044B054A9B68C3F34233D35C034A106883
:100DB000D840704700380240D004010824000020C9
:100DC000F8B504460E4615461F4621688A6836EA7D
:100DD000020301D00020F8BD6B1CF7D0FFF72AFCFE
:100DE000C01B8542F1D823685A6822F0E0025A609D
:100DF0006268B2F5827F0AD1A268B2F5004F02D0D4
:100E0000B2F5806F03D11A6822F040021A60A26A1C
:100E1000B2F5005F07D11A6822F400521A601A680E
:100E200042F400521A60012384F85130002384F800
:100E300050300320F8BD000073B51346134A144E1A
:100E400015684268B5FBF6F64FF47A757543B2F54E
:100E5000827F044601950DD10A468021FFF7B0FF3D
:100E600010B9002002B070BD636D43F020036365CC
:100E70000320F7E7019B002BF3D0019B013B01937B
:100E800023689B681B06F5D4EBE700BF2400002015
:100E900000366E0110B50446002836D00023836268
:100EA00090F8513003F0FF021BB980F8502000F099
:100EB00003FC2168A068A269022384F851300B6802
:100EC00023F040030B6063680343E0680343206939
:100ED000034360690343E0690343206A0343A06A54
:100EE000034302F4007003430B60120C636A02F0C8
:100EF00004021A434A60CB6923F40063CB610020EB
:100F00000123606584F8513010BD012010BD2DE92A
:100F1000F7431E4690F850300A9F012B04460D46B9
:100F2000914600F0E280012380F85030FFF782FB09
:100F300094F851306168DBB2012B80460AD0B1F5DC
:100F4000827F40F0D080A068002840F0CC80042B45
:100F500040F0C980002D00F0C480B9F1000F00F00E
:100F6000C080002E00F0BD8094F85130C4F8389055
:100F7000042B1CBF052384F85130002363652364D0
:100F800063642368E687E6861A68A687500658BF1A
:100F90001A68256358BF42F04002A68658BF1A60FF
:100FA000E268B2F5006F58D109B1012E07D135F8CA
:100FB000022BDA60E38E2563013B9BB2E3860125B9
:100FC000E38E9BB2ABB9E38F9BB293B942463946ED
:100FD0002046FFF731FF002840F08180A368002BF6
:100FE00032D123680190DA6801929B680193019BDA
:100FF0002AE02268936899070DD5E38E9BB253B11E
:101000004DB1236B33F8021BD1602363E38E013BA8
:101010009BB2E38600259368DB070CD5E38F9BB278
:101020004BB1A36BD26823F8022BA363E38F013B80
:101030009BB2E3870125FFF7FDFAA0EB080087428A
:10104000BED87E1CBCD00320012384F8513000237D
:1010500084F8503003B0BDE8F08309B1012E08D107
:101060002A781A73236B01332363E38E013B9BB20F
:10107000E3860125E38E9BB21BB9E38F9BB2002B65
:10108000A4D02268936898070ED5E38E9BB25BB11B
:1010900055B1236B1B781373236B01332363E38EEA
:1010A000013B9BB2E386002522689368D9070DD5E2
:1010B000E38F9BB253B1A36BD2681A70A36B013359
:1010C000A363E38F013B9BB2E3870125FFF7B2FAED
:1010D000A0EB08008742CDD87B1CCBD0B3E7202300
:1010E00063650120B0E70220AEE70220B2E700000E
:1010F00038B50368C1681A69044622F440520A43AD
:101100001A612569A268D968C0692A43656921F412
:1011100016412A4321F00C0102430A43DA605A695E
:10112000A16922F440720A43B0F5004F5A61254A82
:1011300029D1934203D002F58062934220D1FFF778
:101140002FFE6268256892184FF000034FF01901D6
:101150005B41A0FB0101FFF79BF86421B0FBF1F4B8
:1011600001FB1403DB003233B3FBF1F303F007029E
:101170005B0002EB041203F4F8731344AB6038BD58
:10118000FFF7FEFDDDE7934202D00F4A934216D1EE
:10119000FFF706FE6368256819219A00A0FB01018C
:1011A0009B0FFFF775F86422B0FBF2F102FB11030D
:1011B0001B013233B3FBF2F303EB0113DEE7FFF75E
:1011C000DFFDE7E70010014000140140F8B50446D8
:1011D0000E4617461D4621680B6836EA030301D107
:1011E0000020F8BD6B1CF7D095B92368DA6822F4AB
:1011F000D072DA605A6922F001025A61202384F821
:10120000393084F83A30002384F838300320F8BDB0
:10121000FFF710FAC01B8542DDD2E6E710B50446A1
:1012200040B390F8393003F0FF021BB980F8382042
:1012300000F078FA2268242384F83930D36823F444
:101240000053D3602046FFF753FF23681A6922F446
:1012500090421A615A6922F02A025A61DA6842F40D
:101260000052DA6000202023E06384F8393084F8EB
:101270003A3010BD012010BD2DE9F8431F4690F80B
:101280003930202B04460D46904651D100294CD0D0
:10129000002A4AD090F83830012B49D0012380F839
:1012A00038304FF000092123C0F83C9080F83930E5
:1012B000FFF7C0F9A4F824800646A4F8268084F835
:1012C0003890E38C9BB25BB93B46324640212046C6
:1012D000FFF77CFFA0B9202384F83930BDE8F883FC
:1012E000E38C013B9BB2E384A368B3F5805F324695
:1012F0003B464FF0800120460ED1FFF767FF10B14B
:101300000320BDE8F8832B882268C3F308035360E9
:10131000236943B90235D4E7FFF758FF0028EFD11E
:1013200023682A785A600135CBE70120BDE8F883AD
:101330000220BDE8F88300F00F03092B8CBF373380
:101340003033001109280B70C3B2CCBF37333033B0
:101350004B700B782F2B05D948782F288CBF002095
:1013600001207047012070472DE9F347DFF85C80CA
:10137000DFF85490DFF858A007460E460024B44228
:1013800006D111480DF030FF002002B0BDE8F08713
:1013900001A9385DFFF7CFFF651C28B121465046F3
:1013A0000DF0AEFE2C46EAE79DF804209DF80510EE
:1013B00040460DF0A5FE2B07F4D1002CF2D0484694
:1013C0000DF012FFEEE700BFEB0A0108C9030108A8
:1013D000AE030108F8B5084F0E4615460024AC428E
:1013E00001DB2846F8BD31194FF6FF73012238465C
:1013F000FFF742FF0134F2E7C027002010B594B098
:101400003022002108A80DF0B9FD0021142203A804
:101410000DF0B4FD0024174B01941A6C42F0805279
:101420001A641B6C144A03F080530193019B0294CD
:10143000136823F4404343F40043136013680E948D
:1014400003F440430293029B0223089301230B936E
:1014500008A810230C93FFF723FA0F23214603A8B3
:1014600003930494059406940794FFF7EDFB14B0DE
:1014700010BD00BF00380240007000401FB5194C7D
:10148000204601F0B9F86079029020790190E07867
:10149000A37862782178009013480DF031FE607ACD
:1014A000237AE279A179009010480DF029FE607B43
:1014B000237BE27AA17A00900D480DF021FE607C3A
:1014C000237CE27BA17B00900A480DF019FE607D31
:1014D0000090237DE27CA17C07480DF011FE04B052
:1014E00010BD00BF080000202704010854040108B3
:1014F0006F0401088A040108A5040108F0B589B049
:1015000000240094FFF770F8FFF778FF21461422BB
:1015100003A80DF033FD4A4B01941A6B49484A4E1B
:101520004A4F42F001021A631A6B02F00102019263
:10153000019A02941A6B42F002021A631B6B03F0C9
:101540000203224602934021029BFFF7A3F94023A6
:1015500003A903933B480594012304930694FFF7E2
:10156000CBF83B4A3B484FF4827380E80C004FF4C1
:10157000007383610A238460C46004614461C461B0
:10158000046244628462C362FFF784FC32483349D8
:1015900084604FF4E13380E80A000C234361C460A7
:1015A00004618461C461FFF739FE2D482D4C0DF0B4
:1015B0001BFE00F08DF9802000F0E4F901462A4876
:1015C0000DF09EFD1B2000F0DDF9014627480DF0CF
:1015D00097FD274800F0E6FFFFF750FF694603A894
:1015E00001F06CF8014623480DF08AFD224A42F2D0
:1015F000B32103A801F000F94FF40062214603A8CB
:1016000001F068F9051E09DD2A46214630460DF035
:1016100077FD2A46214603A801F05FF903223946E7
:1016200020460DF0D2FE0028E6D103A801F058F9BB
:1016300010B912480DF0D8FD03A801F0C1F8DBE79E
:101640000038024000040240100401089A440108D6
:101650000030014068270020C027002000440040DF
:10166000CF03010800280020E8030108F703010860
:1016700008000020030401081F0000201B040108CB
:1016800082B00C4B002100915A6C42F480425A64A3
:101690005A6C02F480420092009A01911A6C42F056
:1016A00080521A641B6C03F080530193019B02B0BB
:1016B000704700BF0038024010B5044688B01422BD
:1016C000002103A80DF05AFC2268144B9A4222D143
:1016D00003F58433002101915A6C114842F4805281
:1016E0005A645A6C02F480520192019A02911A6B68
:1016F00042F001021A631B6B03F001030293029B89
:10170000E0230393022304930323069303A90523F1
:101710000793FEF7F1FF08B010BD00BF0030014095
:101720000000024010B5044688B01422002103A82E
:101730000DF024FC2268154B9A4224D103F5FA33AC
:10174000002101911A6C124842F400321A641A6C9A
:1017500002F400320192019A02911A6B42F00102E6
:101760001A631B6B03F001030293029B0C23039388
:1017700002230493012305930323069303A907235C
:101780000793FEF7B9FF08B010BD00BF004400404A
:10179000000002407047FEE7FEE7FEE7FEE7704705
:1017A00070477047FEF73ABF70B50E4615460C46B7
:1017B000A31B9D4201DC284670BDAFF3008004F8F6
:1017C000010BF5E708B50A4B1968024609B9094942
:1017D00019601868694602448A4206D90DF060FB18
:1017E0000C2303604FF0FF3008BD1A6008BD00BF36
:1017F0000C010020043000204FF0FF3070474FF400
:1018000000534B6000207047012070470020704754
:101810000F49D1F8883043F47003C1F888300D4B7C
:101820001A68002042F001021A6098601A6822F0DB
:10183000847222F480321A60074A5A601A6822F4CD
:1018400080221A60D8604FF000638B60704700BF41
:1018500000ED00E00038024010300024002240215A
:101860000148FFF717B800BF0004024001224021E1
:101870000148FFF70FB800BF000402407FB50A23FC
:101880008DF80F0000930DF1170201230DF10F01E8
:101890000248FFF73CFB07B05DF804FB6827002017
:1018A0001FB500238DF80E30FF238DF80F300A236B
:1018B00000930DF10E0201230DF10F010348FFF714
:1018C00026FB9DF80E0005B05DF804FB682700209C
:1018D0001FB5FFF7CBFF1549154800F0C9FC1549A6
:1018E000154800F0B3FC154A1068516802AB03C3F9
:1018F00002A9012000F002FE01300BD110480A229B
:1019000001210DF0FDFB05B05DF804FB9DF80730EB
:10191000002BF8D10DF107010F2000F0EFFD013091
:10192000F4D10A2201210748EBE700BF7D18000827
:10193000A11800086D1800085D1800087003010860
:10194000D8040108F404010870B50D4CE3680E4694
:101950000546984763699847236AF0209847236AA9
:10196000C5F307209847236AE8B29847236A3046B0
:101970009847A36998472369BDE87040184700BF9E
:101980002C00002038B50C4CE36805469847636985
:101990009847236A0F209847236AC5F30720984782
:1019A000236AE8B29847E3699847A36905469847D0
:1019B00023699847284638BD2C0000202DE9F041C6
:1019C000104CE3680D4606461746984763699847EA
:1019D000236AF0209847C6F30720236A9847F0B29D
:1019E000236A9847013F6E1E3D44AE4205D1A3696C
:1019F00098472369BDE8F0411847236A16F8010F9C
:101A00009847F2E72C0000202DE9F041104CE368E4
:101A10000D4606461746984763699847236A0F2084
:101A20009847C6F30720236A9847F0B2236A98477D
:101A3000013F6E1E3D44AE4205D1A369984723691C
:101A4000BDE8F0411847E369984706F8010FF2E74F
:101A50002C000020F8B5061D360206F120070024F0
:101A600021363846FFF78EFF000285B23046FFF779
:101A700089FF0544ADB24DB13846FFF783FF000240
:101A800084B23046FFF77EFF0444A4B2AC42E8D1F2
:101A90002046F8BDF8B5061D360206F126070024DB
:101AA00027363846FFF76EFF000285B23046FFF753
:101AB00069FF0544ADB24DB13846FFF763FF000240
:101AC00084B23046FFF75EFF0444A4B2AC42E8D1D2
:101AD0002046F8BD2DE9F843DFF83C900746002684
:101AE0004FF4C0454FF0030874B2BC4206F1010642
:101AF00002DB2846BDE8F8831A20FFF743FF6400A5
:101B000008FA04F3184020414FF48064844004EA4A
:101B100009042544E8E700BF00FCFF032DE9F84372
:101B2000DFF83C90074600264FF480454FF003084D
:101B300074B2BC4206F1010602DB2846BDE8F88318
:101B40001B20FFF71FFF640008FA04F31840204130
:101B50004FF48064844004EA09042544E8E700BFA8
:101B600000FCFF032DE9F04F061D360285B006F19B
:101B700024038246184690460F460093FFF702FF63
:101B800006F12503054618460193FFF7FBFE00EB1F
:101B900005251B20FFF7F6FE4FEA4A0B032303FA45
:101BA0000BF600EA06044FF0010944FA0BF409FAB7
:101BB00004F45046FFF7B2FFA402ADB2013C2C4042
:101BC000204483B202931B2004EB08030393FFF726
:101BD000D9FE30401B4B40FA0BF009FA00F003EA43
:101BE0008020039B834228DD1B20FFF7CBFE304083
:101BF00040FA0BF109FA01F1C4EB8124A4B22246A8
:101C000039460298FFF7DAFE5046FFF787FF274470
:101C1000A8EB0404A4B22246394680B24544ADB2D2
:101C2000FFF7CCFE290A0098FFF78EFE0198E9B273
:101C300005B0BDE8F04FFFF787BE4246394602982F
:101C4000ECE700BF00FCFF032DE9F04F061D360254
:101C500085B006F128038246184690460F46009349
:101C6000FFF790FE06F12903054618460193FFF79A
:101C700089FE00EB05251A20FFF784FE4FEA4A0B88
:101C8000032303FA0BF600EA06044FF0010944FAB5
:101C90000BF409FA04F45046FFF71CFFA402ADB29E
:101CA000013C2C40204483B202931A2004EB080329
:101CB0000393FFF767FE30401B4B40FA0BF009FA25
:101CC00000F003EA8020039B834228DD1A20FFF7FF
:101CD00059FE304040FA0BF109FA01F1C4EB8124BE
:101CE000A4B2224639460298FFF78EFE5046FFF70F
:101CF000F1FE2744A8EB0404A4B22246394680B280
:101D00004544ADB2FFF780FE290A0098FFF71CFE9C
:101D10000198E9B205B0BDE8F04FFFF715BE4246A5
:101D200039460298ECE700BF00FCFF0310B50C46F3
:101D300001463F20FFF708FE210A4020FFF704FE7E
:101D4000E1B24120FFF700FE01214420FFF7FCFD36
:101D50004420FFF717FE0028FAD110BD014610B548
:101D60003F20FFF7F1FD02214420FFF7EDFD442065
:101D7000FFF708FE0028FAD14220FFF703FE0446D1
:101D80004320FFF7FFFD40EA042080B210BD0000B1
:101D90000428F8B5054629D8041D2402671C102123
:101DA0003846FFF7D1FD3846FFF7ECFD0646002820
:101DB000F9D1FF21A01CFFF7C7FD0E490123AB405D
:101DC0000A88DB431BB21A400A800B4A11880B4079
:101DD00013800A4B23F81560094B5E5503342046E7
:101DE000FFF7D0FD0028FAD10120F8BD4FF0FF30F9
:101DF000F8BD00BF100100201201002018010020D2
:101E00001401002004282DE9F341044688461746B2
:101E10001D4672D8012905D001D305290FD96FF0CD
:101E2000040009E004220DEB02010F20FFF7ECFD96
:101E3000019B23B96FF0020002B0BDE8F0816A0790
:101E400053D42DB1B8F1010F4CD0B8F1020F4FD0DF
:101E50002046261DFFF79CFF360225F00F0141EAC0
:101E600008013046FFF770FD6FB9254A17887B1CC3
:101E70009BB24FF6F0718B4209BF4FF44043138081
:101E800013804FF6EF77390A301DFFF75DFDF9B289
:101E9000701D771CFFF758FD01213846FFF754FDF0
:101EA0003846FFF76FFD0028FAD116490123A340F9
:101EB0000A88DB431BB205F001051A40A540154313
:101EC000114A0D8011880B401380104B23F8140029
:101ED0000F4B185503363046FFF754FD0028FAD053
:101EE00060B2A9E715F0210FB2D16FF00500A3E7AA
:101EF000AB06ADD515F0800FF6E74FF0FF309BE74E
:101F000028000020100100201201002018010020EC
:101F10001401002004282DE9F04107460D469046A3
:101F20005ED8041D24022046FFF72CFD00F00F00B0
:101F3000012859D1E61C3046FFF724FD132857D15C
:101F40002B786A7802EB0322AB7803EB0222EB7862
:101F5000013B03EB022303334ED8B8F1000F4FD0FF
:101F60000422294604F10C00FFF728FD4FEA18214E
:101F700004F11000FFF7E8FC651C5FFA88F104F13A
:101F80001100FFF7E1FC04212846FFF7DDFC28469D
:101F9000FFF7F8FC0028FAD11B4B1B883B41DA07FE
:101FA0001CD402343046FFF7EDFC172802D1012083
:101FB000BDE8F0812046FFF7E5FC030707D5204682
:101FC0000821FFF7C1FC6FF00C00BDE8F08130463E
:101FD000FFF7D8FC0028E5D16FF00300BDE8F081E1
:101FE0004FF0FF30BDE8F0816FF00400BDE8F081F4
:101FF0006FF00200BDE8F0816FF00B00BDE8F081EA
:102000006FF00A00BDE8F0811001002004282DE9DE
:10201000F74F0546894614467CD8061D36023046E1
:10202000FFF7B0FC00F00F00012876D1002C77D02C
:1020300006F103084046FFF7A5FC172801D01C282D
:102040003AD1394F3B882B41D90711D506F1020A05
:102050005046FFF797FCC20631D510215046FFF7D6
:1020600073FC012303FA05F23B8823EA02033B8059
:102070001B20FFF787FC6A000323934018404FF0B2
:10208000010A10410AFA00F0800280B28442274B14
:1020900028BF04460AFA05FA28460193FFF7DAFC3E
:1020A00083464046FFF76EFC1728019B13D01C287F
:1020B00011D02846FFF76CFE6FF0060002E0030720
:1020C00003D4002003B0BDE8F08F2846FFF760FE80
:1020D0006FF00C00F6E71A8812EA0A0F17D0A34532
:1020E000EFD34946284622460136FFF73BFD202123
:1020F0003046FFF729FC3046FFF744FC0028FAD1B0
:102100003B884AEA030AA7F800A02046DAE7A3457D
:10211000C2D3E6E74FF0FF30D4E76FF00400D1E719
:102120006FF00D00CEE700BF12010020100100206B
:102130002DE9F04F85B004288346029117466ED8EA
:10214000051D2D022846FFF71DFC00F00F04012C91
:1021500068D1002F69D01A20FFF714FC4FEA4B0A10
:10216000032604FA0BF3804606FA0AF6019305F1FA
:1021700003095846FFF78EFC04464846FFF702FC69
:10218000172840D01C2836D1F4B108EA060040FADE
:102190000AF24FF48060904080B2874228BF074621
:1021A000BC4228BF3C46A4B202995846224601359B
:1021B000FFF74AFD40212846FFF7C6FB2846FFF7F8
:1021C000E1FB0028FAD125E05846FFF743FC0390D5
:1021D0001B20FFF7D7FB304040FA0AFE4FF4806027
:1021E00000FA0EF020F07C4020F47F70039920F07C
:1021F0000300814207D15846FFF7CAFD6FF0060081
:1022000005B0BDE8F08F0A4B1988019B194203D035
:10221000002CBAD12046F3E7002CAAD0B5E74FF046
:10222000FF30EDE76FF00400EAE76FF00D00E7E73D
:10223000100100207047007870470170704700203F
:10224000704770477047704770470000054B00B1FA
:1022500021B9054A5A61054A9A61704758619961E6
:10226000704700BF2C0000204922000835220008DA
:10227000084B10B51C88A4051A4600D4FEE700B12F
:1022800021B9054BD361054B136210BDD8611962AA
:1022900010BD00BF2C0000203F2200084322000890
:1022A0007FB5062204A90920FFF7AEFB04220DEB3F
:1022B00002010120FFF7A8FB02A904220520FFF775
:1022C000A3FB042203A90F20FFF79EFB802100201F
:1022D000FFF73AFB0020FFF755FB04A9062209206F
:1022E000FFF76CFB04220DEB02010120FFF766FBF8
:1022F00002A904220520FFF761FB042203A90F2095
:10230000FFF75CFB07B05DF804FB2DE9F8430646D8
:102310000D46FFF7C5FF66B3771EF11C3A46002352
:1023200012F8010F03445BB2082B52DC8A42F7D14A
:1023300000244FF0030817F8012F002301E00133B8
:102340002AB14FFA83F942FA09F10129F7D11B208A
:10235000FFF718FB08FA04F120EA010109FA04F971
:1023600041EA0901C9B21B200234FFF7EDFA082C3B
:10237000E1D115B90020BDE8F8836A1EE91C0023ED
:1023800012F8010F03445BB2082B22DC9142F7D113
:10239000002403272B5D002202E0315D013229B1C8
:1023A0004FFA82F843FA08F10129F6D11A20FFF713
:1023B000E9FA630007FA03F120EA010108FA03F3DE
:1023C0001943C9B21A200134FFF7BEFA042CE1D137
:1023D000D0E74FF0FF30BDE8F88300F0E0011520B2
:1023E000FFF7B2BA08B51520FFF7CCFA00F0E0000D
:1023F00008BD00F0EF01C0F3032001431620FFF7F2
:10240000A3BA08B51620FFF7BDFA00F00F0300F0DD
:10241000EF0000EB032008BD08B53C20FFF7B2FA3F
:1024200000F0010008BD08B50020FFF797FC6FEA37
:1024300040416FEA514189B20020FFF777FC00204C
:10244000FFF78CFC0304FAD408BD10B50446002045
:10245000FFF784FC6378012B03D140F4805189B2EB
:1024600010E0E378012B08BF20F48051A3780BBF64
:1024700089B220F4885141F4807189B2012B06D1D0
:1024800041F400510020BDE81040FFF74FBC21F49B
:102490000051E4E710B504460020FFF75FFC01237C
:1024A00010F48052237001D0637010BD627010F47C
:1024B000807218BF1A4610F40050E27014BFA37067
:1024C000A07010BD10B504460020FFF747FC012C9A
:1024D0000CBF40F4006120F4006189B20020FFF7D6
:1024E00025FC0020FFF73AFC012C4FEAD02008BF62
:1024F00080F0010040F3000010BD000010B50C4654
:102500000F2849D8DFE800F0080C18141C204848B0
:10251000233134380A3C4841FFF7C2FE002010BD89
:1025200029B104312046BDE81040FFF7EEBEF9E7BF
:102530000888FFF752FFF1E7FFF754FF2080EDE72F
:102540000888FFF756FFE9E7FFF75BFFF6E7144B54
:102550009A780A70DA784A701A798A705A79CA7049
:102560009B790B710020487110BDFFF75CFFD5E728
:102570000846FFF76AFFD1E70846FFF78BFFCDE774
:102580000878BDE81040FFF79DBFFFF745FFC0B2D8
:10259000FF2801D02070C1E74FF0FF3010BD00BF11
:1025A0002C00002010B50146044606220920FFF742
:1025B00005FA042204F10E010120FFF7FFF90422BD
:1025C00004F10A010520FFF7F9F90422A11D0F20EB
:1025D000FFF7F4F9064BA27C1A70E27C5A70227D58
:1025E0009A70627DDA70034BA27D1A7010BD00BF35
:1025F000210100202001002010B5014604460622DA
:102600000920FFF701FA042204F10E010120FFF76F
:10261000FBF9042204F10A010520FFF7F5F9042271
:10262000A11D0F20FFF7F0F9064B1A78A2745A7813
:10263000E2749A78DB786375034B22751B78A37577
:1026400010BD00BF21010020200100200229009BB5
:1026500003DC194601480CF053BD70470F05010813
:10266000F8B51446064692B200780F46FFF760FDB3
:10267000224603460546316804480CF041FD2146D8
:102680003846FEF771FE2846F8BD00BF1405010864
:1026900070B516460D460446016807480CF030FD3B
:1026A00031462846FEF760FEB2B229462078BDE8E2
:1026B0007040FFF7ABBC00BF2F05010873B504469F
:1026C00002200E4603F08EF94FF4A0700CF012FCBD
:1026D00005462060B4200CF00DFC606054200CF026
:1026E00009FCA0604FF49A700CF004FCE0602846EE
:1026F00003F0BEF8E0680BF0A7FF60680AF03CF951
:10270000A0680AF059FD23480CF06EFD00231A461C
:102710001946A0680AF054FDA16860680AF098FCA8
:1027200001461D480CF0ECFC1C4960680AF03EF9BB
:102730001B4A1C484FF499610CF0E2FC1849E06810
:102740004FF499620CF006FB011E02DA16480CF0F9
:10275000D7FC0022E168A0680AF025F9A0680021F2
:102760000AF00EF92268A06810490AF010F9104B1F
:10277000A0681B680F499A680AF00CF900230093BF
:1027800060680D4B0D4A31460AF007F9012002B08E
:1027900070BD00BFED0A0108100B010858000020B1
:1027A00047050108290B0108400B0108F328000820
:1027B0008C0000204D2600086126000891260008A4
:1027C00010B5044640680AF08FFCA0680AF034FD9A
:1027D000206803F052F8E0680BF03BFF20680CF033
:1027E00091FB60680CF08EFBA0680CF08BFBE0683E
:1027F000BDE810400CF086BBF7B505460F461646FF
:1028000000214FF480622B480CF0B8FB6B682A481B
:10281000DB6919780CF074FC6B68D86900231A46E0
:1028200001210078FFF7EEFA0446014623480CF038
:1028300067FC6B68DB691B789C4237D1F078B37812
:1028400072783178009001971D480CF059FC6B6844
:10285000DB693A4631461878FFF75CFB04460146CF
:1028600018480CF04DFC012C20D117480CF048FC06
:1028700068680AF0F3F8044638B968680AF0CCF8DA
:10288000014612480CF03CFC10E024F0800313F5E4
:10289000D24FEDD04FF48062064903F079FA214619
:1028A000044A0B480CF02CFC4FF0FF34204603B0D8
:1028B000F0BD00BF25010020100A0108290A010807
:1028C000370A01085C0A0108700A0108CD0A0108EC
:1028D000980A010840680AF0EFB840680AF0E8B9C1
:1028E00010B5044660680AF053FA10F5D14FF9D0DC
:1028F00010BD70B50D468AB18C18FF26A54205D1D2
:102900000CF0A2FC0CF078FC002070BD0CF09CFCDC
:1029100090FBF6F3184405F8010BEFE7012070BDBA
:102920002DE9F04FADF6140D012300220DF5826163
:1029300004A841F8232040F8223013F0800018BF8B
:102940001B2083EA430301324340B2F5807FDBB2B0
:10295000EED1684C0123002213F0800044F82230AD
:1029600018BF1B20013280EA43030A2ADBB2F3D1ED
:10297000614E624D63233370002385F86330012478
:1029800051F8243004AAC3F1FF0352F823304FEA70
:10299000E31E4EEA430E5FFA8EFE4FEAEE1747EA59
:1029A0004E07FFB2F81140EA4700C0B283F063035C
:1029B000C21183EA0E0342EA40027B404340D2B296
:1029C00053403355EC540134B4F5807FD8D18B6B30
:1029D00001934B6A0293CF6A4B6BDFF81CE1DFF87F
:1029E00030C1DFF83081DFF83091DFF830A1DFF857
:1029F0000CB10393002212F80E1011F0800F14BFD7
:102A00001B20002080EA41000B04C0B243EA0123EE
:102A10004340414043EA01634FEA33614CF82230BE
:102A200048F822104FEA33414FEA33234AF8223064
:102A30001BF8023049F822109400002B54D00DF5F9
:102A40008261019851F823104518FF2095FBF0F69C
:102A5000C6EB0626AE1B04AD55F82650029E314447
:102A600091FBF0F0C0EB0020091A04A850F82110E7
:102A700009024D40002B3AD00DF58261039851F8C0
:102A800023100144FF2091FBF0F0C0EB0020081A56
:102A900004A951F8201009044D4073B10DF582616D
:102AA00051F82330FF213B4493FBF1F1C1EB0121AD
:102AB000591A04AB53F821301B065D40104BE5500A
:102AC000104B4FEA3561E1500F4B4FEA3541E15071
:102AD00001320E4B4FEA3525B2F5807FE5508AD1A1
:102AE0000DF6140DBDE8F08F1D461946C1E71946D5
:102AF000D2E700BF28160020250500205016002030
:102B000050170020501B0020501F00205023002091
:102B100028060020280A0020280E00202812002065
:102B20004FF48C7200210CF029BA20B100F58C739F
:102B30000022984200D1704702700130F9E700008E
:102B4000F8B58A4F3B6805460C4616461BB9FFF799
:102B5000E7FE01233B60C02E4FD0B6F5807F4ED0FC
:102B6000802E40F0FF800A2305F108002B6068608A
:102B7000760921460022B24201F1040141D12B68BD
:102B80000C2B50D00E2B00F08F800A2B33D105F187
:102B90001800774E774D002456F8242050F8041C76
:102BA00050F8103C5340C1F307220134AA5C534053
:102BB0000A0E0A2CAA5C83EA0243CAB200F1100092
:102BC000AA5C83EA0263C1F30742AA5C83EA022398
:102BD00050F81C2C40F8103C83EA020350F8182CE3
:102BE00040F80C3C83EA020340F8083C83EA010306
:102BF00040F8043CD0D10020F8BD0C23B4E70E23EC
:102C0000B2E711F8023C11F8034C1B0443EA042319
:102C100011F8044C234311F8014C43EA046340F8D3
:102C200022300132A7E705F12000514E514D00241A
:102C300056F8242050F8041C50F8183C5340C1F3B7
:102C400007220134AA5C53400A0E082CAA5C83EACE
:102C50000243CAB200F11800AA5C83EA0263C1F31E
:102C60000742AA5C83EA022350F82C2C40F8183C57
:102C700083EA020350F8282C40F8143C83EA02034C
:102C800050F8242C40F8103C83EA020350F8202C22
:102C900040F80C3C83EA020340F8083C83EA010355
:102CA00040F8043CC4D1A6E705F12800314A304D74
:102CB000002455F8243050F8041C50F8206C50F8CB
:102CC000107C7340C1F307260134965D73400E0EED
:102CD000072C965D83EA0643CEB200F12000965D94
:102CE00083EA0663C1F30746965D83EA062350F83C
:102CF0003C6C40F8203C83EA060350F8386C40F8FE
:102D00001C3C83EA060350F8346C40F8183C83EA14
:102D10000603DEB240F8143C965D86EA07064FEAE9
:102D20001367D75D86EA0766C3F30727C3F3074334
:102D3000D75DD35C86EA072686EA034350F82C6CFD
:102D400040F8103C83EA060350F8286C40F80C3C2D
:102D500083EA060381EA030140F8083C40F8041CBA
:102D6000A7D148E76FF01F00F8BD00BF5027002033
:102D700028160020250500202DE9F04FC9B0044693
:102D800002A80D461646FFF7CBFE04F10803636068
:102D90003246294602A8FFF7D3FE804600284CD1D0
:102DA00002990398284DDFF8A890DFF8A8A0DFF873
:102DB000A8B021600A0183188258A2605A68E260B4
:102DC0009A682261D868606104F118020139103BE9
:102DD00000292ADD1E1FA2F1040E03F10C0C56F887
:102DE000040FC4B2B4452F5D4FEA10642C5D01940A
:102DF000164C54F82770019C59F8244087EA0407C0
:102E0000C0F30724C0F307402C5D285C5AF8244027
:102E100084EA07045BF8207084EA07044EF8044F44
:102E2000DDD110320139103BD2E7196811605968C1
:102E3000516099689160DB68D36002A8FFF775FE66
:102E4000404649B0BDE8F08F25050020501700200E
:102E500050230020501B0020501F00202DE9F74F69
:102E600045684E680C68D1F808C0CF68E9682B68DF
:102E7000DFF878E34F400168DA48491001395C40D7
:102E80006B68019129467340AE6851F8109FD64D8A
:102E90008CEA060C019E002E88465FFA84FA01F146
:102EA00020014FEA176B00F3D18050F82B6055F8E2
:102EB0002A10DFF840E3714081EA0909C3F30721D2
:102EC000CA4E5EF8211089EA0109CCF307414FEAA6
:102ED000146A56F8211050F82AA089EA0109D9B2DB
:102EE0004FEA136B55F8211050F82BB081EA0A0A0B
:102EF000D8F804108AEA010ACCF30721C3F3074388
:102F00005EF8211056F823308AEA010AC7F3074118
:102F100056F821108AEA010A5FFA8CF14FEA1C6C1C
:102F200055F8211050F82C0081EA0B0BD8F8081046
:102F30008BEA0101C7F3072BFFB25EF82BB055F8FF
:102F4000275081EA0B01C4F3074BC4F30724454023
:102F5000D8F80C005EF8244056F82BB0684060406A
:102F600058405FFA89F4A24B1E5DD8F810406640C5
:102F7000040E81EA0B011C5D86EA0466CAF307248D
:102F80001C5D86EA0426C1F307441C5D86EA0446FC
:102F90005FFA8AF41D5DD8F814406C404FEA196559
:102FA0005D5D84EA0564C1F307255D5D84EA05245F
:102FB000C0F307455D5D84EA0544CDB2090E5F5D4F
:102FC000D8F818507D404FEA1A67CAF3074ADF5D08
:102FD00085EA0765C0F30727C0B2DF5D185C595C5E
:102FE00085EA0725C9F30747C9F30729DF5D85EAA5
:102FF0000745D8F81C70784080EA016013F8091082
:1030000013F80A30167080EA0120310A5170310C31
:103010009170210A5171210C9171290A80EA0343B0
:103020005172290C9172190A360E14711572240E00
:103030002D0E137351730020190C1B0ED670D47112
:10304000D5729173D37303B0BDE8F08F50F82B8025
:1030500055F82AA051F8206C8AEA080A8AEA060A7A
:10306000C3F30728634E56F8288051F81C6C8AEA8F
:10307000080ACCF307485FFA83F95EF8288055F810
:1030800029B08AEA080A4FEA14685FFA8CF950F806
:10309000288055F829908BEA080B8BEA060BCCF3B5
:1030A0000728544E56F8288051F8186C8BEA080B04
:1030B000C7F307484FEA1C6C5EF828808BEA080BC0
:1030C0004FEA1368C3F3074350F8288089EA0808D9
:1030D00088EA0608C7F30729464E56F8299088EA79
:1030E0000908C4F30749FFB25EF8299055F8277024
:1030F00088EA090850F82C90C4F3072487EA0909E4
:1031000051F8147C89EA070956F8247089EA0709FE
:103110005EF8237089EA07095FFA8AF44FEA1963B7
:1031200055F8244050F823305C4051F8103C5C4086
:10313000CBF307235FFA8BF756F8233055F8277047
:103140005C40C8F307435FFA88FC5EF8233055F80B
:103150002CC05C404FEA1A6350F823305F4051F8AE
:103160000C3C7B40C8F307274FEA186856F82770D5
:103170007B40C9F307475EF827707B404FEA1B6727
:10318000CBF3074B50F827708CEA070C51F8087CFA
:1031900050F828808CEA070CC9F307275FFA89F9F1
:1031A00056F827708CEA070CCAF30747CAF3072AB8
:1031B0005EF827708CEA070C55F82970D1F800905A
:1031C00087EA080851F8047C88EA070756F82A803D
:1031D000019E87EA08075EF82B80013E87EA080710
:1031E000019657E62812002028060020280E00200D
:1031F00025050020280A00202DE9F74F4568D1F861
:1032000000C04C688E68CF68E9682B68DFF878E307
:103210004F400168DA48491001398CEA030C6B68A9
:10322000019129465C40AB6851F8109FD54D734021
:10323000019E002E88465FFA8CFB01F120014FEAC7
:10324000146A00F3D08050F82A6055F82B10DFF88C
:1032500040E3714081EA0909C7F30721CA4E5EF8CD
:10326000211089EA0109C3F307414FEA136A56F8AE
:10327000211050F82AA089EA0109E1B24FEA176B40
:1032800055F8211050F82BB081EA0A0AD8F804103A
:103290008AEA010ACCF307215EF821108AEA010AC2
:1032A000C7F30741FFB256F821108AEA010AD9B2E2
:1032B000C3F3072355F8211055F827505EF8233043
:1032C00081EA0B0BD8F808108BEA0101C4F3072B35
:1032D000C4F307445EF82BB081EA0B01CCF3074B33
:1032E0004FEA1C6C56F82BB050F82C004540D8F82B
:1032F0000C006840584056F824305FFA89F4584072
:10330000A24B1E5DD8F8104066404FEA1A6481EA6D
:103310000B011C5D86EA0466C0F307241C5D86EA87
:103320000426C1F307441C5D86EA04465FFA8AF46A
:103330001D5DD8F814406C400D0E5D5D84EA056497
:10334000C9F307255D5D84EA0524C0F307455D5D8B
:1033500084EA0544CDB2C1F307215F5DD8F8185067
:103360007D40070EC0B2DF5D85EA0765CAF3072717
:10337000CAF3074ADF5D185C595C85EA0725C9F383
:1033800007474FEA1969DF5D85EA0745D8F81C70E1
:10339000784013F8097013F80A30167080EA076055
:1033A00080EA0120310A5170310C9170210A51716B
:1033B000210C9171290A80EA03435172290C917200
:1033C000190A360E14711572240E2D0E13735173D3
:1033D0000020190C1B0ED670D471D5729173D37363
:1033E00003B0BDE8F08F50F82A8055F82B9051F8C3
:1033F000206C89EA080989EA0609C7F30728644EA0
:1034000056F8288051F81C6C89EA0809C3F307486C
:103410005FFA84FA5EF8288055F82AA089EA08093C
:103420004FEA13685FFA83FB50F8288055F82BB0F9
:103430008AEA080A8AEA060ACCF30728544E56F8A4
:10344000288051F8186C8AEA080AC7F30748C3F3C2
:1034500007235EF828808AEA080A4FEA1768FFB255
:1034600050F8288055F827708BEA080888EA060883
:10347000C4F3072B464E56F82BB056F8233088EA93
:103480000B08CCF3074B4FEA1C6CC4F3074450F80D
:103490002CC05EF82BB087EA0C0C51F8147C8CEA37
:1034A00007075F405EF824304FEA1A645F405FFA16
:1034B00089F350F8244055F8233083EA040C51F87E
:1034C000103C8CEA030CC7F3072388EA0B0856F874
:1034D00023308CEA030CC8F307435FFA8AF45EF8E2
:1034E000233055F824408CEA030C4FEA18635FFA46
:1034F00088FB50F8233055F82BB05C4051F80C3C59
:103500005C40C9F30723C8F3072856F823305C4012
:10351000C7F307435EF823305C403B0EFFB250F820
:1035200023308BEA030B51F8083C55F8277056F806
:1035300028808BEA0303CAF3072BCAF3074A56F81D
:103540002BB0019E83EA0B03C9F3074B4FEA1969BD
:103550005EF82BB050F8299087EA090951F8047CED
:1035600089EA070787EA08075EF82A80D1F8009001
:10357000013E83EA0B0387EA0807019658E600BF7D
:103580005023002050170020501F0020501600200C
:10359000501B002010B40129144621461A4603D1BD
:1035A0005DF8044BFFF75ABC5DF8044BFFF724BEEF
:1035B0002DE9F04F85B09846130781460F46164611
:1035C0000E9D0F9C5CD149B92A460DF1100BB31A20
:1035D000DD4227D1002005B0BDE8F08F6B1E002E24
:1035E000F8D008F1FF30611E03F1100513F8012F28
:1035F00010F801EFAB4282EA0E0201F8012FF5D17B
:103600002346224639464846FFF7C4FF434604F1A5
:10361000100254F8041B43F8041B9442F9D1103EE5
:103620002B46DCE71346EE4602F1100A6F46186897
:103630005968F446ACE8030008335345E646F6D132
:10364000234600214846FFF7A5FF631E08F1FF311E
:1036500004F10F005A7811F801EF82EA0E0203F824
:10366000012F8342F6D142463B4603CB5B451060B7
:1036700051601F4602F10802F6D152461034A6E707
:103680006FF02100A7E7036830B5CD1A002D02DCEA
:103690006FF05F0030BD1C7814F0800F0AD15C1C05
:1036A00004601B7813600368C91A13688B42EFD853
:1036B000002030BD04F07F04013C032C2ED8DFE84D
:1036C00004F00209121E012DE2D05C78146002336E
:1036D0000360E8E7022DDBDD5D789C7844EA052491
:1036E00014600333F4E7032DD2DD9C785D78240267
:1036F00044EA0544DD782C4314600433E8E7042DE4
:10370000C6DD9C785D78240444EA05641D792C4369
:10371000DD7844EA052414600533D9E76FF06300CF
:1037200030BD70B404680E1B002E07DD26789E4263
:1037300008D10134046070BCFFF7A5BF6FF05F00D3
:1037400070BC70476FF06100FAE737B5012315468A
:1037500001AA0446FFF7E5FF50B9019B012B09D1EF
:10376000236813F8012B003218BF01222A6023605E
:1037700003B030BD6FF06300FAE737B5022315469A
:1037800001AA0446FFF7CDFF68B9019B013B032B5B
:1037900014D8236893F90030002B0FDB2860019BBD
:1037A0005A1E01920BB903B030BD2368296813F883
:1037B000012B42EA01222A602360F0E76FF06300E8
:1037C000F1E770B5032304460E461546FFF7A9FF3F
:1037D000C8B9136893B1013B1360226812782A714B
:1037E000072A0ED8226801322260AA602268134498
:1037F0009E42236018BF6FF0650070BD6FF05F00E0
:1038000070BD6FF0630070BD38B5032304461546E4
:10381000FFF787FF58B913685A1E012B2A6004D995
:1038200023685A1C22601B780BB16FF0670038BD0B
:103830002DE9F7431446984601AA302305460F4662
:10384000FFF76FFF064630B92B68019A13449F4279
:103850001DD06FF06506304603B0BDE8F0831B78DD
:1038600023604A46434639462846FFF75AFFC0B907
:103870002B68A3602B68626813449F422B6008D9B1
:10388000102101200BF004FBE060044658B104F164
:1038900004092B689F42E2D84FF00003E360DAD0BE
:1038A000D7E70646D7E76FF06906D4E72DE9F74377
:1038B00090461D4601AA302304468946FFF731FF92
:1038C000064608BB2768A9EB0709B9F1000F38DDE8
:1038D00042463B7842F8043B019B1F44394606238D
:1038E0002046FFF71EFF064670B92368C8F8083067
:1038F0002168D8F804208B189F4223600BD105F172
:103900000C0302469D4203D1304603B0BDE8F0836C
:103910002A700135F6E7895C2A46013342F8041B18
:10392000204623603946FFF7AEFE68B92368AB60D6
:1039300023686A6813449F42236018BF6FF06506CE
:10394000E2E76FF05F06DFE70646DDE72DE9F043CB
:10395000DDF81CE0DFF8188100273C463D46754540
:103960002DD24FF0000C5E5D202E23D0AEEB05096A
:10397000B9F1010F05D90D2E03D15E1976780A2E03
:1039800016D05E5D0A2E13D0BCF1000F6CD13D2E17
:1039900002D10137022F67D816F0800F64D118F8D2
:1039A00006607F2E60D03F2E01D8002F5CD10134FD
:1039B0000135D4E70135AE450CF1010CD3D11CB96A
:1039C00014600020BDE8F08304F0070E0626E4082A
:1039D00006FB0EFE74430EF1070EE41B04EBDE043F
:1039E00078B18C420DD80027DFF884C0DFF88480DE
:1039F0001D44014603263C46AB4207D1091A11601B
:103A0000DFE714606FF02900BDE8F08313F8019B35
:103A1000A9F10A0E5FFA8EFEBEF1160F04D828FA3D
:103A20000EFE1EF0010FE7D11CF809E00134BEF1D3
:103A3000400F08BF013E0EF03F0E042C4EEA8717E0
:103A4000DAD17EB13C0C012E0C7002D10131002480
:103A5000D2E7022E4FEA17244C7016BF8F70023146
:103A60000331F4E73446C7E76FF02B00BDE8F0837D
:103A70005C0B0108090040000023F0B516461C4607
:103A8000844203D102EB8402BBB9F0BDD6F800E05A
:103A9000AEEB0305356051F82470BD422CBF4FF0EA
:103AA000000C4FF0010CED1B734594BF63460CF105
:103AB000010346F8045B0134E2E71168C81A8B423F
:103AC00042F8040B94BF00230123DDE72DE9F04702
:103AD0004FF0000C0D4614468646BEF10F0F05F15F
:103AE000400504F1400400F287804FEA101EA0EB6D
:103AF0000E1007284FEA8E1E01EB0E0502EB0E0496
:103B000066D951F80E60A3FB067852F80E601CEBE4
:103B1000070C2CBF012100211CEB060642F80E60A9
:103B20006E6841EB0801A3FB06786668CA192CBFD2
:103B30000121002192196260AE6841EB0801A3FBEC
:103B40000678A668C9192CBF012200228919A16034
:103B5000EE6842EB0802A3FB0678E668D2192CBF98
:103B6000012100219219E2602E6941EB0801A3FBBB
:103B700006782669C9192CBF012200228919216102
:103B80006E6942EB0802A3FB06786669D2192CBF66
:103B90000121002192196261AE6941EB0801A3FB8A
:103BA0000678A669C9192CBF012200228919A161D2
:103BB000EE69E169A3FB066742EB080292192CBF8C
:103BC0004FF0010C4FF0000C52184CEB070CE26167
:103BD000C20851010C44A0EBC2000D4404EB80006C
:103BE000844240F02C81036863449C4540F8043BC8
:103BF00000F23A81BDE8F08755F8406CA3FB069AC5
:103C000054F8406C1CEB090C2CBF4FF001084FF02E
:103C100000081CEB060644F8406C55F83C6C48EB79
:103C20000A08A3FB069A54F83C6C18EB09082CBF51
:103C30004FF0010C4FF0000C18EB060644F83C6CFA
:103C400055F8386C4CEB0A07A3FB068954F8386C1E
:103C500017EB08072CBF4FF0010C4FF0000CBE19FA
:103C600044F8386C55F8347C54F8346C4CEB090C3F
:103C7000A3FB07891CEB080C2CBF012700271CEBBA
:103C8000060644F8346C55F8306C47EB0907A3FB83
:103C9000068954F8306C17EB08072CBF4FF0010C65
:103CA0004FF0000CBE1944F8306C55F82C7C54F8D9
:103CB0002C6C4CEB090CA3FB07891CEB080C2CBFEC
:103CC000012700271CEB060644F82C6C55F8286CDD
:103CD00047EB0907A3FB068954F8286C17EB080784
:103CE0002CBF4FF0010C4FF0000CBE1944F8286CAB
:103CF00055F8247C54F8246C4CEB090CA3FB078981
:103D00001CEB080C2CBF012700271CEB060644F80F
:103D1000246C55F8206C47EB0907A3FB068954F87F
:103D2000206C17EB08072CBF4FF0010C4FF0000C74
:103D3000BE1944F8206C55F81C7C54F81C6C4CEBF4
:103D4000090CA3FB07891CEB080C2CBF01270027DB
:103D50001CEB060644F81C6C55F8186C47EB090779
:103D6000A3FB068954F8186C17EB08072CBF4FF01B
:103D7000010C4FF0000CBE1944F8186C55F8147C77
:103D800054F8146C4CEB090CA3FB07891CEB080CD2
:103D90002CBF012700271CEB060644F8146C55F8CD
:103DA000106C47EB0907A3FB068954F8106C17EB5E
:103DB00008072CBF4FF0010C4FF0000CBE1944F85F
:103DC000106C55F80C7C54F80C6C4CEB090CA3FBF4
:103DD00007891CEB080C2CBF012700271CEB0606EB
:103DE00044F80C6C55F8086C47EB0907A3FB0689EF
:103DF00054F8086C17EB08072CBF4FF0010C4FF07C
:103E0000000CBE1944F8086C55F8046C4CEB090C16
:103E1000A3FB06781CEB070C2CBF0126002608EB41
:103E2000060754F8048C0CEB080644F8046CAEF159
:103E3000100EB04594BFBC4607F1010C4DE655F895
:103E4000046BA3FB06671CEB060C26682CBF012144
:103E500000210CEB0602394444F8042B964294BF2F
:103E60008C4601F1010CBBE64FF0010CBBE620B122
:103E700001230360002343608360704710B504464C
:103E800070B1806838B163680246002113F1FF33D6
:103E900007D20BF037F80123236000236360A3608F
:103EA00010BD11600432F1E742F2107399422DE91E
:103EB000F04105460E4603D96FF00F00BDE8F081D2
:103EC0004468A14217D9042130460AF0E1FF804638
:103ED0000028F1D0AF685FB1A20039460BF029F895
:103EE0003B46002214F1FF3408D238460BF00AF8A2
:103EF0006E60C5F808800020BDE8F0811A600433C8
:103F0000F0E78842F8B506460F4622D08D681DB905
:103F1000FFF7B4FF2846F8BD4A68013A1AB155F8D0
:103F20002230002BF9D0541C3B68336021463046C8
:103F3000FFF7BAFF05460028ECD1726801469200EF
:103F4000B0680BF01BF8A200B968B0680AF0F1FF86
:103F5000E0E70025DEE770B50E4601210446FFF7D5
:103F6000A3FF054688B9626801469200A0680BF07D
:103F700005F8A36886EAE672002EA2EBE6721A60E4
:103F8000B4BF4FF0FF3301232360284670BD436860
:103F9000B1EB431F3FBF83684A0901F01F0153F88B
:103FA00022003ABFC84000F001000020704770B501
:103FB000002345681946A9420ED0826852F8214074
:103FC000002224FA02F6F60707D40132202A03F170
:103FD0000103F6D10131EEE70023184670BD4368B6
:103FE00010B5E3B15A1E03F18043013B9B00816889
:103FF0007AB951F8221000204FF00043194204D141
:10400000013020284FEA5303F8D1C0EB4210203092
:1040100010BDCC58043B002CEBD1013AE7E7184621
:1040200010BD08B5FFF7DBFF0730C00808BDF8B5C5
:104030000F4612F0030118BF0121436801EB9204FF
:104040009C420646154605D100213046FFF783FF06
:1040500060B1F8BDFFF712FF3046FFF708FF2146B9
:104060003046FFF721FF0028EED0F8BD791903464E
:10407000AB4200D1F8BD23F0030711F8012DD6F8AB
:1040800008E0DC0004F0180402FA04F45EF80720EB
:1040900022434EF807200133EAE7F8B517460546F4
:1040A0000C46FFF7BEFFB842064616D820463A46F1
:1040B00000210AF063FF3C440023B34201D10020F9
:1040C000F8BD23F00300AF68DA0002F018013A5897
:1040D000CA4004F8012D0133EFE76FF00700F8BD87
:1040E000F8B506460C464D0901F01F07FFF777FFAC
:1040F00073682044B0EB431F03D875B94FBB002051
:10410000F8BD10F01F0118BF012101EB501130461E
:10411000FFF7CAFE0028F0D0F8BD736803F18042B3
:10412000013A6FF0030192006943AB420AD803F1F0
:104130008043013B9B000022191DDFD0B168CA50AB
:10414000043BF9E7B0688418013B64588450043A92
:10415000EBE7D6F804E0AB000021C7F1200C754571
:10416000CDD2B468E05800FA07F20A43E2500135B4
:10417000043320FA0CF1F2E74268F0B54C0994429E
:1041800001F01F0101D805D171B30021BDE8F04055
:10419000FFF7E1BE54BB39B102F18043013B9B0004
:1041A0000025C1F1200EA2B90020F0BD85681E19BE
:1041B00055F8266045F823600133151BAB42F5D353
:1041C000AB0000249542E6D286680135F4500433F2
:1041D000F8E78768FE5826FA01F42C43FC50013AB0
:1041E000043B06FA0EF5DEE7002CDDD00023E4E701
:1041F000436870B503F18042013A92004BB94C68B4
:1042000004F18042013A920054B9181C18BF0120F1
:1042100070BD8468A458043A002CF0D1013BEDE74E
:104220008D68AE58043A0EB9013CEDE79C4211D3BB
:1042300012D803F18042013A92000BB9184670BDC2
:1042400081688C58A9588C4204D8A2F1040203D387
:10425000013BF2E7012070BD4FF0FF3070BD2DE94A
:10426000F04F85B0164603930E9B5A68736801336E
:104270009A4281468B4653D30E9B986800284FD0B4
:10428000920000210AF07AFE0E9BD6F804A09B68EB
:104290000093DBF80430009D534528BF53460AF1D4
:1042A00001070193BF0000245445D9F808001BD131
:1042B000009B391F0B443A4619460AF03AFE314634
:1042C0004846FFF795FF0028B3BF0E9BD9F808209A
:1042D000B1689A68B8BFD9F808102046FFF7CCFB40
:1042E000002005B0BDE8F08FDBF8081050F82480FE
:1042F0002A680B68019803FB0823039A534302932F
:104300002A464346FFF7E2FB029BB1682A46504625
:10431000FFF7DCFB45F8048B0023EB510134C3E7C6
:104320006FF00300DDE7436870B503F18042013AA6
:1043300092003BB94C6804F18042013A920044B9C2
:104340007BB923E08468A458043A002CF2D1013BE5
:10435000EFE78D68AE58043A0EB9013CEFE79C4296
:1043600002D20268104670BD096801D94A42F9E7D5
:104370000268002A01DD002916DB002901DD002A80
:1043800014DB03F18041013989000BB91A46E9E7D2
:10439000846866586C58A642E4D8A1F1040101D2A1
:1043A0005242DFE7013BF0E70122DBE74FF0FF324B
:1043B000D8E71FB581EAE173A3EBE173002900930D
:1043C000B4BF4FF0FF330123019301A901230293EE
:1043D000CDF80CD0FFF7A7FF05B05DF804FB9042C5
:1043E0002DE9F04105460C46174602D0884230D1EF
:1043F0003C46676801232B6007F18043013B9B002B
:104400007FBB39462846FFF74FFD064630BBAB68F9
:10441000D4F808C01A4604460146B94228D18F0094
:104420003B44DCB16A68914201F1010806D3414680
:104430002846FFF739FD58BBAB683B441A68224455
:10444000944243F8042B94BF0024012441460437CE
:10445000E7E7FFF756FD06460028C9D03046BDE81D
:10446000F081A268D258043B002ACAD1013FC7E7B5
:1044700010685CF821E0241874442CBF012000204F
:1044800042F8044B0131A64594BF0446441CC4E7DE
:104490000646E3E7F0B50F4685B0064611463846B6
:1044A0001446FFF7A5FE002832DB01230193B44236
:1044B0004FF000030293039306D1214601A8FFF7B2
:1044C00020FD0546B8B901ACB7420DD160680123A3
:1044D000336000F18043013B9B0090B9B268A16852
:1044E000FFF7CAFA002506E039463046FFF709FD16
:1044F00005460028EAD001A8FFF7C0FC284605B011
:10450000F0BDA268D258043B002AE7D10138E4E7A5
:104510006FF00905F2E7F8B50C68136863430546C8
:104520000F46164616D511463846FFF761FE00289D
:1045300006DB324639462846FFF7ACFF40B1F8BDEE
:104540003A4631462846FFF7A5FF0028F7D16442D6
:104550002C60F4E7FFF743FFF0E7F8B50C68136849
:104560006343002B05460F46164616DD11463846B6
:10457000FFF73EFE002806DB324639462846FFF7A5
:1045800089FF40B1F8BD3A4631462846FFF782FF21
:104590000028F7D164422C60F4E7FFF720FFF0E732
:1045A0001FB582EAE273A3EBE273002A0093B4BF63
:1045B0004FF0FF330123019301AA01230293CDF8A9
:1045C0000CD0FFF7A8FF05B05DF804FB1FB582EA29
:1045D000E273A3EBE273002A0093B4BF4FF0FF3302
:1045E0000123019301AA01230293CDF80CD0FFF718
:1045F000B4FF05B05DF804FB2DE9F04786B0002359
:10460000154688424FF0010281460E468DE80C00A7
:10461000029303920493059305D16846FFF771FC5A
:10462000044688BB6E46A94506D1494603A8FFF754
:1046300068FC044640BB03ADD6F804A00AF18043F1
:10464000013B9B00BAF1000F28D16F6807F180434E
:10465000013B9B0057BB0AEB07014846FFF724FCD0
:10466000044688B901464846FFF775FC044658B928
:1046700007F1804808F1FF384FEA8808EFB932683F
:104680002B685343C9F8003003A8FFF7F7FB6846CF
:10469000FFF7F4FB204606B0BDE8F087B268D258B9
:1046A000043B002AD1D10AF1FF3ACBE7AA68D258DD
:1046B000043B002ACFD1013FCCE7AB68D9F80820F2
:1046C00053F80830B16842445046FFF7FFF9013F04
:1046D000A8F10408D2E71FB50123009201AA0193B3
:1046E0000293CDF80CD0FFF787FF05B05DF804FB0F
:1046F0002DE9F04F9BB00F460190002118469046DF
:104700000393FFF756FE002800F0A3810024012642
:1047100003990B9640460C940D940E960F941094AA
:10472000119612941394149615941694179618943F
:104730001994FFF75DFDA04226DA019B2BB9DFB982
:10474000002420461BB0BDE8F08F21460198FFF7FA
:1047500002FC04460028F2D00BA8FFF78FFB0EA83E
:10476000FFF78CFB11A8FFF789FB14A8FFF786FB66
:1047700017A8FFF783FBE4E741463846FFF7C1FB84
:1047800004460028E8D1DBE741460BA8FFF7B9FB58
:1047900004460028E0D10EAD03992846FFF7B1FB8F
:1047A00004460028D8D1D8F804100E96023111A87A
:1047B0000B96FFF779FB04460028CDD1014611A8DE
:1047C000FFF7C9FB04460028C6D1022114A8FFF751
:1047D0006BFB04460028BFD1032117A8FFF764FB39
:1047E00004460028B8D12846FFF7F9FB00F01F0067
:1047F0001F2878D0C0F11F0319460BA80293FFF7BA
:104800006FFC04460028A7D102992846FFF768FCF0
:1048100004460028A0D10C9EDDF83CA006F1FF392B
:104820000AF1FF33A9EB030B00934FEA4B13194630
:1048300028460693FFF754FC044600288CD14FEA23
:104840008B0B29460BA8FFF76EFD00284DDA069961
:104850002846FFF791FC044600287FF47DAF009BBB
:104860009B000693043B06F18045089306F1006324
:10487000013D013B06F18046A5EB0A05023EA3EB94
:104880000A0AAD004FEA4A1AB600009B99453BD888
:10489000019B5BB111A91846FFF733FB08BB039BD3
:1048A000D8F800201B685343019A1360002F3FF48F
:1048B00053AF02990BA8FFF75FFC90B9D8F800300E
:1048C0000B930BA93846FFF71CFB0146002840F06C
:1048D000BE803846FFF76DFD00287FF43DAF012311
:1048E0003B60044638E7029495E7139951F80B2092
:1048F000013241F80B200BA92A460846FFF72DFE8E
:10490000044600289DD027E7331D06980D99109A7C
:1049100009931258CB581398934279D34FF0FF3331
:104920004351139A535901335351331F9B46139AE2
:104930005359013B5351002114A8FFF70CFB0028E9
:10494000CFD10099169B109A00297ED00899515812
:104950001960069952585A60139B14A908465A596F
:10496000FFF7B9FE0146002871D117A8FFF7F3FA47
:104970000028B6D1B9F1010F0D9A199B1CBF5946F9
:104980005058186091595960099952589A6017A95E
:1049900014A8FFF7C8FC0028C9DC139B0EA95A59BC
:1049A00014A8FFF798FE00289BD1514614A8FFF7E2
:1049B00097FB002895D10BA9084614AAFFF7CDFD57
:1049C0000146002843D10BA8FFF7F3FC002818DAB2
:1049D0000EA914A8FFF795FA002882D1514614A811
:1049E000FFF77EFB00287FF47CAF0BA914AA0846D2
:1049F000FFF791FD00287FF474AF139A5359013BE0
:104A0000535109F1FF39043DAAF1200A043E3CE765
:104A1000284407908859AAB1059300230493DDE93F
:104A200004BC4BEA000B58466146FBF731FC0023FF
:104A30004FF0FF328B4208BF824200D21046079BE4
:104A400018606EE74FF0FF30F9E7009980E70C46F9
:104A500082E66FF00B0474E670B504460D4610460E
:104A600000211646FFF7A5FC002824DB2A46334622
:104A700021460020FFF73CFE054638B1284670BDB0
:104A8000324621462046FFF746FD90B900212046D8
:104A9000FFF78FFC0028F3DB31462046FFF743FC8D
:104AA0000028EBDB324621462046FFF756FD002862
:104AB000F2D00546E2E76FF00905DFE72DE9F04F98
:104AC000ADF2546D06460F461846002103921D466E
:104AD000FFF76FFC002840F32582AB68D3F8008015
:104AE00018F0010F00F01E8200210398FFF761FC0F
:104AF0000028C0F2178208F10204640004F00804E0
:104B00004444032104FB08F3C3F10203013903FB0E
:104B100004F4F7D101234FF4C06214A8089309915B
:104B20000A910B930C910D910E930F9110910AF035
:104B300025FA0398FFF753FAB0F5287F80F0E2805A
:104B4000EF2800F2E2804F2800F2E28017288CBFA5
:104B50004FF0030B4FF0010B6B6803F10108414666
:104B60003046FFF7A1F90346002840F06381414633
:104B700017A8FFF799F90346002840F05B814FEA38
:104B800048010BA8FFF790F90346002840F0528136
:104B90003B68049301330AD139460EA8FFF7B1F9F7
:104BA0000346002840F0468101230E930EAFDDF846
:104BB00078361BB19B68002B40F0AD80012108A81E
:104BC000FFF7C9F90346002840F03481696808A856
:104BD0008901FFF785FA0346002840F02B8108A9D8
:104BE0002A460846FFF738FF0346002840F0228196
:104BF000DDF878363BB108AB03CBDDF878261060E2
:104C000018685160906029463846FFF78CFB0028F1
:104C1000C0F28A802A46394617A8FFF71DFF0346CF
:104C2000002840F0078164420DF12C092346CDF89D
:104C300000902A4608A917A8FFF711FB0346002891
:104C400040F0F88008A93046FFF75BF903460028DA
:104C500040F0F08007AB01271393CDF80090234676
:104C60002A4611A93046079711971297FFF7F7FACE
:104C70000346002840F0DE80BB455AD1039B4FF02D
:104C800000095B680293C846CA464F46BAF1000F56
:104C900040F0B180029B002B40F0A8804FF0010A49
:104CA0000AFA0BFA0DF12C09029B434540F01381DF
:104CB000012307AA07931193129313922346CDF869
:104CC00000902A4611A93046FFF7C9FA034600288A
:104CD00040F0B080049A013240F0AC80039A5268F0
:104CE000002A00F0A780039A92681268D20740F168
:104CF000A180049B3360324629463046FFF70BFC07
:104D0000034697E04FF0060B26E74FF0050B23E72D
:104D10004FF0040B20E7DDF878261068516808ABE7
:104D200003C3906818606EE7394617A8FFF7E9F8E3
:104D300075E70BF1FF33029307FA03F30593029B28
:104D400069680C279F4014AB03EB0708013140460C
:104D5000FFF7AAF8034600286CD117A94046FFF7D1
:104D6000D0F80346002865D182462346CDF800904E
:104D70002A4641464046FFF772FA0346002859D1B9
:104D8000029B0AF1010A5345EFD8059B03F1010983
:104D90000DF5CA634FF001081F4408FA0BF8A7F29B
:104DA000F4570DF12C0AC145BFF468AF6968384665
:104DB0000131FFF779F8034600283BD1A7F10C0138
:104DC0003846FFF79EF80346A0BB23463846CDF889
:104DD00000A02A4617A9FFF742FA0C37034648BB42
:104DE00009F10109DFE74FF002094FE7029B013BA0
:104DF00002934FF0200A039B029A9B6853F82230DB
:104E00000AF1FF3A23FA0AF313F0010336D1B9F19C
:104E1000000F3FF43BAFB9F1010F2FD10BAB009363
:104E20002A46234631463046FFF719FA0346002842
:104E30003FF42CAF01220BF1FF3402FA04F402FA22
:104E40000BF50C26AC42029364D317A8FFF716F8B3
:104E50000BA8FFF713F80EA8FFF710F8DDF8782677
:104E6000029B0AB1926822B908A80293FFF706F8DC
:104E7000029B18460DF2546DBDE8F08F08F1010851
:104E8000ABEB08029340C34547EA0307ABD14FF0B1
:104E900000080BAB00932A46234631463046FFF705
:104EA000DEF903460028C5D108F10108C345F0D852
:104EB0000BAB14A80C21009301FB070123462A46E3
:104EC0003046FFF7CCF903460028B3D14FF0010973
:104ED00007468046DAE62346CDF800902A4631465A
:104EE0003046FFF7BCF903460028A3D17F0017EA3C
:104EF0000A0F03D1029B01330293D5E62346CDF876
:104F000000902A4617A93046FFF7A9F90346002862
:104F1000F0D08FE714AB06FB0430FEF7AFFF01348F
:104F2000029B8FE76FF00303A3E7F0B58BB000237C
:104F30000126074604A8154601960293039304969A
:104F400005930693079608930993FEF7DAFF044644
:104F5000002857D1294607A8FEF7D3FF04460028AA
:104F600050D104A8FFF723F8054607A8FFF71FF85C
:104F7000854228BF0546294604A8FFF7FDF80446E8
:104F800000283FD1294607A8FFF7F6F80446002875
:104F900038D107960496002104A8FFF70AFA58B9F9
:104FA000294607A8FFF79CF8044658BB07A93846CE
:104FB000FEF7A7FF044625E004A8FEF7F8FF014628
:104FC00004A8FFF7D9F80446E0B907A8FEF7EFFFF9
:104FD000014607A8FFF7D0F8044698B907A904A826
:104FE000FFF7A1F9002819DB04A907AA0846FFF773
:104FF00051FA044630B9012104A8FFF7BDF8044670
:105000000028C8D001A8FEF739FF04A8FEF736FF34
:1050100007A8FEF733FF20460BB0F0BD07A904AA8E
:105020000846FFF737FA04460028EBD1012107A80C
:10503000E3E770B5B1F5807FC0B005460C46164673
:1050400016D80A4618466946B04720B9224669462E
:105050002846FEF7ECFF002340F201121C460DEB40
:1050600003010133934201D140B070BD0C70F6E7EB
:105070006FF00300F8E72DE9F04180469CB00F4641
:10508000104601211646FFF794F9002840F34381AA
:10509000002301253246394601A80495059306935D
:1050A0000795089309930A950B930C930D950E930E
:1050B0000F930195029303931095119312931395F7
:1050C0001493159316951793189319951A931B9388
:1050D000FFF72BFF0446002854D1294601A8FFF70B
:1050E00068F9002840F014813246394604A8FFF7D9
:1050F000B3FC0446002845D104A907A8FEF701FF28
:10510000044600283ED1314610A8FEF7FAFE0446B8
:10511000002837D1314613A8FEF7F3FE04460028D5
:1051200030D129460AA8FEF716FF044650BB0146B7
:105130000DA8FEF710FF044620BB014616A8FEF797
:105140000AFF0446F0B9294619A8FEF704FF0446F1
:10515000C0B9099B1B68D80766D4012107A8FFF7CF
:105160000BF8044670B90C9B1B68DD0729D40F9B14
:105170001B68DC0725D401210AA8FEF7FDFF0446C1
:1051800000282FD004A8FEF779FE07A8FEF776FEC8
:105190000AA8FEF773FE0DA8FEF770FE01A8FEF741
:1051A0006DFE10A8FEF76AFE13A8FEF767FE16A8AC
:1051B000FEF764FE19A8FEF761FE20461CB0BDE8AC
:1051C000F0810AA910AA0846FFF7A5F904460028AD
:1051D000D8D10DA904AA0846FFF7BFF90446002854
:1051E000C9D0CFE701210DA8FEF7C6FFAFE7012127
:1051F00013A8FEF7C1FF04460028C3D1189B1B6803
:10520000D9074CD41B9B1B68DA0748D4012116A888
:10521000FEF7B2FF04460028B4D1012119A8FEF719
:10522000ABFF04460028ADD1159B1B68DB07DED51C
:1052300013A907A8FFF777F8002842DB07A913AAEC
:105240000846FFF78AF9044600289BD10AA916AA46
:105250000846FFF782F90446002893D119AA0DA940
:105260000846FFF77AF9044600288BD1002107A8E9
:10527000FFF79FF800287FF46CAF002116A8FFF716
:1052800098F8002832DB314616A8FFF74CF80028C2
:1052900035DA16A94046FEF734FE044672E716A931
:1052A00010AA0846FFF737F9044600287FF46AAFD2
:1052B00019A904AA0846FFF750F904460028A5D00A
:1052C00060E713A907AA0846FFF747F90446002834
:1052D0007FF458AF16A90AAA0846FFF73EF904461C
:1052E00000287FF44FAF0DAA19A9B9E716A93246D5
:1052F0000846FFF710F904460028BED042E716A979
:1053000032460846FFF729F904460028BBD039E7A2
:105310006FF00D0436E76FF003044EE710B100683C
:1053200000B140697047000018B112B1116000204F
:1053300070470148704700BF009FFFFF054B53F8BF
:10534000042C22B1083313F8101C8142F7D1104607
:10535000704700BF180D010830B5084C63680BB9E1
:10536000184630BD9D692D78854205D15D688D4216
:1053700002D15D789542F3D00834EFE7100D0108B3
:105380004022002109F0FABD10B5044650B1C06BAF
:1053900018B123689B699B69984704F14003002278
:1053A0009C4200D110BD22700134F9E730B4C8B17D
:1053B0000468BCB12569AD0702D46568954211D176
:1053C000012B4260037204D06578032D01D0052DB6
:1053D00004D1A369DB68C06B30BC184713B9A3695B
:1053E0001B69F8E7014830BC704700BF009FFFFF12
:1053F00038B514460546A8B103689BB191B1102A8F
:105400000ED81A69D20703D4DB689C420AD31C4623
:10541000224605F1280009F08CFDAC63002038BD60
:10542000014838BD014838BD809FFFFF009FFFFF46
:1054300028B103681BB10023436218467047014836
:10544000704700BF009FFFFF2DE9F74FDDF8308068
:105450000F4615469946044618B9584803B0BDE8AA
:10546000F08F0268002AF8D0B8F1000FF5D00023C1
:10547000C8F80030FFF752FF5378012B064610D1D1
:10548000A84240F095809369C8F800005D68E06B21
:105490000A4694F908104B46AC4603B0BDE8F04FFD
:1054A0006047062B0AD1E06BC8F800500A464B460D
:1054B000294603B0BDE8F04F01F0E0BC002879D0E8
:1054C000494508D1626A002AC7D1B5FBF0F200FB5A
:1054D0001252002AC1D1022B6ED194F90830606AB1
:1054E0006BB9331A9D420FD814302A4639462044EE
:1054F00009F01FFD636A1D4465620020AEE7012BC1
:1055000002D1331A9D42EFD310B3A6EB000A143038
:1055100052463946204409F00CFD234694F9081000
:1055200053F8142B92698DE8080204F12803D2F88D
:1055300008B0E06B3246D84700288FD1D8F8003049
:105540003344C8F80030B14460625744A5EB0A0503
:10555000002DD2D0B5FBF6FA06FB1A5ABAF1000FAD
:1055600004D194F90830002B08BFB246A5EB0A0518
:105570005246791904F1140009F0DBFC636A5344C4
:105580006362002DB9D0236894F908109B698DE8F7
:1055900080022A469E68E06B04F12803B047002889
:1055A0007FF45CAFD8F800301D44C8F8005055E7D0
:1055B000034853E7034851E703484FE7009FFFFFC5
:1055C000809DFFFF809CFFFF809FFFFFF7B50E4689
:1055D00015460446002855D00768002F52D0002AEF
:1055E00050D0002313607A78032A09D0511F022972
:1055F00006D9012A07D1636A002B244B08BF002378
:10560000184603B0F0BD022A3ED190F90830012BB4
:105610002AD1C368002BEED0A16B143001B9F96810
:10562000626A98472046FFF779FE234694F90810EE
:1056300053F8142B92698DE8480004F12803976809
:105640000246E06BB84703460028D9D194F90820F8
:1056500020469AB9FFF762FE236901462A46304682
:1056600003B0BDE8F0401847FFF758FE636A984260
:10567000D8D0E268002ABFD0044BC1E7FFF74EFE46
:105680002860BDE7024BBBE7024BB9E7809DFFFFF7
:10569000009FFFFF809FFFFF58B103685B78022BDC
:1056A00007D1042907D10023044AC36002611846C8
:1056B0007047034870470348704700BF29530008EC
:1056C000009FFFFF809FFFFF38B504460D4681B164
:1056D00078B14022002109F051FCAB695B69984721
:1056E000E06340B1256004212046FFF7D5FF00208C
:1056F00038BD024838BD024838BD00BF009FFFFFDB
:10570000809EFFFFF0B585B005461F460B9E0C9CA2
:10571000FFF76EFEB0B92846FFF78AFE90B90094F5
:1057200033460A9A39462846FFF78EFE50B921685B
:1057300003AA31442846FFF749FF18B92368039AA2
:105740001344236005B0F0BD2DE9F0430768079DC1
:105750007F78089EDDF828E0DDF82C90DDF83080B9
:10576000DDF834C0062F1446099A12D1C9F800207A
:105770000893CDF83480CDF830C0CDF82CE00A96EF
:10578000099507940B46C06B0121BDE8F04301F079
:1057900063BC0148BDE8F083809FFFFF30B505681A
:1057A0006D7887B0062D0C460C9918D10E9D296096
:1057B0000D9D05950B9D0495109D03950F9D0295DC
:1057C0000A9D8DE828001346C06B224601F069FC53
:1057D000044B10F1120F08BF184607B030BD024845
:1057E000FBE700BF009DFFFF809FFFFF10B5044651
:1057F00001F084FC2046BDE8104009F083BB10B5E1
:105800004FF4C471012009F043FB044608B101F0D4
:10581000D7F9204610BD13460A46022101F0D5B93A
:1058200010B50446FDF781F92046BDE8104009F0A7
:1058300069BB10B54FF48C71012009F029FB0446B7
:1058400008B1FDF76DF9204610BDFDF795BAFDF7DB
:1058500077B910B45DF8044BFDF7AABEFDF79ABE08
:1058600001440023884200D1704703700130F9E7FA
:105870004FF4A072002109F081BB10B5044648B175
:105880002030FDF752F920464FF4A071BDE81040DA
:10589000FFF7E6BF10BD10B404694069A4465DF887
:1058A000044B60472DE9F04FADF5077D9A46919E78
:1058B0000391736804925C1E03F18043013B8346AD
:1058C0009B00B2681CB1D158043B002940D052F86B
:1058D0002420A5001F2322FA03F1C90702D413F1E3
:1058E000FF33F8D203EB441306AF01330093394A78
:1058F000909B4FF40071384609F0F0FC5346009736
:10590000049A0399DBF80000FFF7C5FF631C00242D
:105910000293A1460123029AE2B906AD33B1C4F560
:10592000007128192C4A09F0D9FC0444C4F500710F
:105930002A4A281909F0D2FC00955346049A039983
:10594000DBF80000FFF7A7FF0DF5077DBDE8F08F3E
:10595000013CB6E71BB1B2685259002A34D04FF06F
:10596000180833B1B268525922FA08F212F0FF0F48
:1059700025D019F00F03059311D1B9F1000F0ED006
:10598000C4F50071154A381909F0A8FC0097534670
:10599000049A0399DBF80000FFF77DFF059CB368CC
:1059A0000F4A5B5906A823FA08F3DBB2C4F500716D
:1059B000204409F093FC09F1010904440023A8F1F3
:1059C000080818F1080FCCD1029A013A0292043D5E
:1059D000A1E700BF310E0108540E0108443201084E
:1059E0004E0E0108014B1860704700BF542700207D
:1059F0002DE9F0410E46ADF5047D17469846054663
:105A0000F8B10368EBB11B69DBB1104B1B688B422B
:105A100017DB04AC8BAB8A9A03934FF400712046DA
:105A200009F02CFDB0F5FF7F04D80A23235420444D
:105A300000234370009443463A4631462868FFF7F6
:105A40002AFF0DF5047DBDE8F08100BF542700203A
:105A50002DE9F0411746ADF5027D026898460446EF
:105A60000D46899BD2B11269C2B10E4A12688A42B0
:105A700014DB13F5D24F11D05A4202AE01920093BB
:105A8000094A889B4FF40071304609F027FC0096C4
:105A900043463A4629462068FFF7FDFE0DF5027D94
:105AA000BDE8F08154270020580E01082DE9F04F81
:105AB00099460368ADF5097D06460F469046002BD2
:105AC00040D01B69002B3DD0414B1B688B4239DB1A
:105AD00008AC949B00933F4A929B4FF40071204680
